:020000040000FA
:100000000C946C030C9494030C9494030C9494033C
:100010000C9494030C9494030C9494030C94940304
:100020000C9494030C9494030C9486060C94F5069B
:100030000C9494030C9494030C9494030C949403E4
:100040000C9494030C9494030C9494030C949403D4
:100050000C9494030C9494030C9494030C9427092B
:100060000C9494030C9494030C9494030C949403B4
:100070000C9494030C9494030C9494030C949403A4
:100080000C9494030C9494030C9494030C94940394
:100090000C9494030C9494030C9494030C94940384
:1000A0000C9494030C9494030C94940300000000AB
:1000B000003E5B4F5B3E3E6B4F6B3E1C3E7C3E1CEE
:1000C000183C7E3C181C577D571C1C5E7F5E1C0034
:1000D000183C1800FFE7C3E7FF0018241800FFE7EB
:1000E000DBE7FF30483A060E2629792926407F05AE
:1000F0000507407F05253F5A3CE73C5A7F3E1C1CC4
:1001000008081C1C3E7F14227F22145F5F005F5F83
:1001100006097F017F006689956A6060606060946F
:10012000A2FFA29408047E040810207E2010080874
:100130002A1C08081C2A08081E101010100C1E0C7F
:100140001E0C30383E3830060E3E0E060000000011
:100150000000005F00000007000700147F147F14F8
:10016000242A7F2A1223130864623649562050003D
:1001700008070300001C2241000041221C002A1C29
:100180007F1C2A08083E0808008070300008080814
:100190000808000060600020100804023E51494534
:1001A0003E00427F400072494949462141494D3352
:1001B0001814127F1027454545393C4A49493141B9
:1001C000211109073649494936464949291E000087
:1001D00014000000403400000008142241141414DC
:1001E0001414004122140802015909063E415D59C8
:1001F0004E7C1211127C7F494949363E41414122D1
:100200007F4141413E7F494949417F090909013EFA
:10021000414151737F0808087F00417F4100204021
:10022000413F017F081422417F404040407F021C33
:10023000027F7F0408107F3E4141413E7F0909094A
:10024000063E4151215E7F09192946264949493216
:1002500003017F01033F4040403F1F2040201F3FDC
:100260004038403F63140814630304780403615961
:10027000494D43007F4141410204081020004141A3
:10028000417F04020102044040404040000307084F
:100290000020545478407F2844443838444444284B
:1002A000384444287F385454541800087E090218F2
:1002B000A4A49C787F0804047800447D400020407A
:1002C000403D007F1028440000417F40007C0478BE
:1002D00004787C080404783844444438FC18242406
:1002E0001818242418FC7C08040408485454542486
:1002F00004043F44243C4040207C1C2040201C3C03
:100300004030403C44281028444C9090907C4464F9
:10031000544C44000836410000007700000041368C
:10032000080002010204023C2623263C1EA1A16112
:10033000123A4040207A3854545559215555794144
:100340002154547841215554784020545579400C1B
:100350001E527212395555555939545454593955FC
:100360005454580000457C410002457D420001453F
:100370007C40F0292429F0F0282528F07C545545AC
:10038000002054547C547C0A097F4932494949323F
:100390003248484832324A4848303A4141217A3A54
:1003A00042402078009DA0A07D39444444393D401E
:1003B00040403D3C24FF2424487E4943662B2FFCCB
:1003C0002F2BFF0929F620C0887E09032054547979
:1003D000410000447D413048484A32384040227A4A
:1003E000007A0A0A727D0D19317D2629292F2826C7
:1003F0002929292630484D402038080808080808CF
:100400000808382F10C8ACBA2F102834FA00007B27
:10041000000008142A142222142A1408950022002D
:1004200095AA005500AAAA55AA55AA000000FF00E7
:10043000101010FF00141414FF001010FF00FF1024
:1004400010F010F0141414FC001414F700FF000056
:10045000FF00FF1414F404FC141417101F10101FD5
:10046000101F1414141F00101010F0000000001FC3
:10047000101010101F10101010F010000000FF10CE
:100480001010101010101010FF10000000FF1400CA
:1004900000FF00FF00001F10170000FC04F41414FC
:1004A0001710171414F404F40000FF00F7141414C8
:1004B00014141414F700F7141414171410101F1048
:1004C0001F141414F4141010F010F000001F101F6B
:1004D0000000001F14000000FC140000F010F010D9
:1004E00010FF10FF141414FF141010101F00000050
:1004F00000F010FFFFFFFFFFF0F0F0F0F0FFFFFF54
:100500000000000000FFFF0F0F0F0F0F38444438AA
:10051000447C2A2A3E147E02020606027E027E02E5
:1005200063554941633844443C04407E201E200604
:10053000027E020299A5E7A5991C2A492A1C4C7241
:1005400001724C304A4D4D303048784830BC625AC8
:10055000463D3E494949007E0101017E2A2A2A2A58
:100560002A44445F444440514A444040444A514034
:100570000000FF0103E080FF000008086B6B0836F5
:1005800012362436060F090F060000181800000066
:100590001010003040FF0101001F01011E00191D55
:1005A0001712003C3C3C3C0000000000F0F89C8E20
:1005B0008783878E9CF8F00000FEFF03030303038C
:1005C000070EFCF80000FEFF0303030303070EFC05
:1005D000F80000FFFF00000000000000FFFF000027
:1005E000FEFF8383838383C7EE7C380000F8FC0E14
:1005F00007030303070EFCF800003F7FE0C0808084
:10060000C0E07F3FFFFF01010101010101FFFF0089
:1006100000FFFF0C0C0C0C1C3E77E3C100007FFFB9
:10062000C0C0C0C0C0E0703F1F00001F3F70E0C0EE
:10063000C0C0E0703F1F00007FFFC1C1C1C1C1E366
:10064000773E1C00001F3F70E0C0C0C0E0703F1F3D
:10065000000000000001FFFF01000000D5F08D1434
:10066000A1C881CFD9F1AF2000080B00020202001F
:100670000009040000010202000005240010010529
:100680002401010104240206052406000107058156
:100690000310004009040100020A000000070502DF
:1006A0000240000007058302400000040309041211
:1006B000010002EF020140412336800001010203E4
:1006C0000141726475696E6F204C4C430041726445
:1006D00075626F790000A40911241FBECFEFDAE024
:1006E000DEBFCDBF11E0A0E0B1E0E8E5F8E102C077
:1006F00005900D92A833B107D9F725E0A8E3B1E042
:1007000001C01D92AB3BB207E1F713E0CCE6D3E0AA
:1007100004C02197FE010E94240CCB36D107C9F7F3
:100720000E94C1090C942A0C0C940000E7E6F1E049
:10073000A0E0B8E000800EBC8111012C1197A0FD53
:10074000FDCF0192B9F70DB40895E1E0F0E00E9409
:10075000BA03319728F068517C4F8F4F9F4FF9CFE4
:10076000AB01FC010E94BA03641775078E079F074F
:10077000C8F30895A0E4B1E02FB7F8947D918D916E
:100780009C9166B52FBFA89B05C06F3F18F47F5F93
:100790008F4F9F4F22E0660F771F881F991F2A9562
:1007A000D1F70895FC0180916601882311F13FB7CC
:1007B000F89482E08093E9002091F200822F90E08B
:1007C0001816190614F481E090E0882339F028986F
:1007D00044E6409365014091F1004083222339F0C3
:1007E0002091F200211103C02BE62093E8003FBFC7
:1007F00008958FEF9FEF08952FB7F89483E08093CB
:10080000E9009091E800892F807295FF04C09091D3
:10081000F20080E4891B2FBF089580915D01811152
:100820000DC082E08093590184E080935A011092B8
:100830005C0110925B0181E080935D0189E591E0AC
:1008400008958F929F92AF92BF92CF92DF92EF92D4
:10085000FF920F931F93CF93DF936C017B018A016B
:1008600080910C01882309F458C080916601882387
:1008700009F453C08091580180FF05C08091E000C9
:1008800082608093E000E801B12C8AEFA82E93E00B
:10089000892E2AE3922E209711F4BB20B9F10E94F1
:1008A000FC03811106C0AA94AA20B9F10E94A503F5
:1008B000F2CF8C171D0611F00CF08C2F9FB7F89417
:1008C0008092E9002091E80025FD02C09FBFE3CFA0
:1008D000282F30E0C21BD30BF701815020F041914B
:1008E0004093F100FACFE20EF31EBB2021F090926C
:1008F000E800B12CEBCF8091E80085FDE7CF909226
:10090000E800BB24B394209709F3F3CF5D9884E605
:1009100080935701101611063CF081E090E0F6013B
:100920009383828310E000E0C801DF91CF911F9193
:100930000F91FF90EF90DF90CF90BF90AF909F907E
:100940008F900895CF93DF931F92CDB7DEB7698361
:10095000DC01ED91FC910280F381E02D41E050E05B
:10096000BE016F5F7F4F09950F90DF91CF91089582
:1009700083E08093E9008091F200882319F08AE3F4
:100980008093E80008950E94FC0390E00895CF93BF
:10099000DF931F92CDB7DEB7FC018485958597FD67
:1009A00008C02FEF3FEF358724870F90DF91CF915D
:1009B0000895CE0101960E94D203019719F489810E
:1009C00090E0F3CF8FEF9FEFF0CF0F931F93CF9374
:1009D000DF931F92CDB7DEB78C01FC01848595852E
:1009E00097FF0BC0CE0101960E94D203019771F4CC
:1009F000898190E0F80195878487F8018485958541
:100A00000F90DF91CF911F910F9108958FEF9FEF7E
:100A1000F1CFFC018485958597FD0BC09FB7F894B5
:100A200082E08093E9008091F2009FBF90E0019600
:100A300008959FB7F89482E08093E9008091F200D6
:100A40009FBF90E00895409153015091540120912F
:100A500051013091520142175307B4F49091E800CC
:100A60009570E1F39091E80092FD19C08093F10038
:100A7000809153019091540101968F739927892B8E
:100A800019F48EEF8093E800809153019091540106
:100A90000196909354018093530181E0089580E082
:100AA0000895DF92EF92FF920F931F93CF93DF93FE
:100AB000D82E8A01EB017B01E40EF51ECE15DF0571
:100AC00059F0D7FE12C0FE0184910E9423052196A1
:100AD0008111F4CF0FEF1FEFC801DF91CF911F916C
:100AE0000F91FF90EF90DF9008958881EECF0F93E4
:100AF0001F93CF93DF931F92CDB7DEB782E0898338
:100B000042E450E069E676E080E80E9451050E94E8
:100B10000D04DC0112960D911C910115110589F04F
:100B2000D801ED91FC910280F381E02DBE016F5F51
:100B30007F4FC801099597FD04C0F8010085118514
:100B4000ECCF89810F90DF91CF911F910F91089584
:100B5000615030F02091F100FC0120830196F8CF24
:100B6000289884E6809365010895AF92BF92CF9252
:100B7000DF92EF92FF920F931F93CF93DF936C015D
:100B80007B018B01040F151FEB015E01AE18BF083E
:100B9000C017D10759F06991D601ED91FC910190F0
:100BA000F081E02DC6010995892B79F7C501DF9108
:100BB000CF911F910F91FF90EF90DF90CF90BF905A
:100BC000AF9008952D9A0895BC0190E080E0AB01AC
:100BD000FC010E94BA0341505109E109F10928F0D2
:100BE00068517C4F8F4F9F4FF6CFAB01FC010E94A5
:100BF000BA03641775078E079F07C8F308958FB16E
:100C00008095807F669B88601C9B84600895AF926E
:100C1000BF92CF92DF92EF92FF920F931F93CF93E9
:100C2000DF936D3079F0C0914E01D0914F016A3061
:100C3000B1F410924D0110924C012896D0934F01BF
:100C4000C0934E0181E090E0DF91CF911F910F9111
:100C5000FF90EF90DF90CF90BF90AF9008954091BC
:100C60004C0150914D0185E0689FF0011124E4553D
:100C7000FF4F9A01C12C80E1E82EA5E070E0CA1672
:100C800021F0CF0101967491FC0110E000E0B72F34
:100C9000B170DB2E20383105D0F4CE01800F911FCA
:100CA00080349105A0F461E081FD64E080FD660F71
:100CB00082FD6295887FE89ED0011124A20FF62E56
:100CC000A959BE4F8C91DD20A9F0862B8C93769587
:100CD0000F5F1F4F08301105D1F6C3942F5F3F4FB0
:100CE00086E0C812CACF4A5F5F4F50934D014093D0
:100CF0004C01A8CFF0948F21E9CF80E00C949603AB
:100D0000089590E080E008950C940E0C1F920F92CD
:100D10000FB60F9211248F939F938091E1009091D1
:100D2000E100937F9093E10083FF0FC01092E900F0
:100D300091E09093EB001092EC0092E39093ED0021
:100D40001092660198E09093F00082FF22C093E039
:100D50009093E9009091F200992319F09AE390930F
:100D6000E80090915701992341F0909157019150DB
:100D700090935701911101C05D9A9091650199235B
:100D800041F090916501915090936501911101C0DE
:100D9000289A84FF18C08091E2008E7E8160809343
:100DA000E2008091E1008F7E8093E1008091580104
:100DB0008E7E8061809358019F918F910F900FBE1E
:100DC0000F901F90189580FFF7CF8091E2008E7EE4
:100DD00080618093E2008091E1008E7E8093E1004B
:100DE000809158018E7E8160E5CF1F920F920FB6E1
:100DF0000F921124CF92DF92EF92FF920F931F93E5
:100E00002F933F934F935F936F937F938F939F9312
:100E1000AF93BF93EF93FF93CF93DF93CDB7DEB73D
:100E20006C97DEBFCDBF1092E9008091E80083FF90
:100E300025C068E0CE0145960E94A80582EF809308
:100E4000E8008D8987FF39C09091E80090FFFCCFC2
:100E5000982F907609F034C19E894F89588D2F893B
:100E6000F88C911131C0803861F5809156018093E2
:100E7000F1001092F1008EEF8093E8006C960FB6AF
:100E8000F894DEBF0FBECDBFDF91CF91FF91EF9100
:100E9000BF91AF919F918F917F916F915F914F9192
:100EA0003F912F911F910F91FF90EF90DF90CF9086
:100EB0000F900FBE0F901F9018959EEF9093E80033
:100EC000C7CF1092F100D5CF913059F48111D3CF13
:100ED0004130510581F6809156018D7F80935601F6
:100EE000CACF933049F48111C6CF4130510519F66C
:100EF000809156018260F2CF953041F48091E800F4
:100F000080FFFCCF20682093E300B5CF963009F036
:100F1000A9C00B8D1C8D22E01092E90010925401A3
:100F200010925301F2122EC01092520110925101F0
:100F30000E9477051F8299E09983FA8291E09E834F
:100F400090EA98879AEF9987209153013091540144
:100F5000275F3F4F3C832B838D831092E9001092D3
:100F6000540110925301109352010093510149E032
:100F700050E0BE016F5F7F4F80E00E9451050E94EC
:100F8000770579CF10935201009351010E940D040F
:100F9000DC0112960D911C910115110509F451C146
:100FA000D801ED91FC910480F581E02DBE016B5ECE
:100FB0007F4FC8010995009709F03EC1F8010085EF
:100FC0001185EACFF3E0FF120EC08F89882309F460
:100FD00040C0823061F440E867E08DEC96E00E940A
:100FE0007109811148CF81E28093EB0047CF8130B6
:100FF00029F440E86BE081EC96E0F1CF833099F77B
:101000000E940D04DC011296ED90FC908E010F5FA2
:101010001F4F6801E114F10479F0D701ED91FC91C3
:101020000680F781E02DB801C7010995080F111D51
:10103000F701E084F184EECFD8011C92F601019013
:101040000020E9F73197BF016C197D0940E0C60126
:10105000C6CF6BEA76E0FB01449150E080E80E9445
:10106000510509CF973009F4BECF983021F481E0C3
:101070008093F10000CF993009F0FDCE837009F024
:10108000B2CFEEE0F1E081E031E096E3219122235E
:1010900071F08093E9003093EB00DF0111972C9100
:1010A0002093EC009093ED008F5F873079F78EE707
:1010B0008093EA001092EA008F8980936601DBCE6C
:1010C0008B8D9C8D1092E900109254011092530167
:1010D0009093520180935101898D811192C08E8924
:1010E0009D89913A49F4813209F07DCF47E050E083
:1010F00065E071E080E0B3CF913209F074CF8332C4
:1011000069F48F89988DB0E0A0E0809301019093FD
:101110000201A0930301B0930401ADCE803269F4C3
:101120008091E80082FFFCCF67E085E091E00E94BB
:10113000A8058BEF8093E8009ECE823209F09BCE0B
:101140008F8980930C01EEEFFFE7859194918B3F9F
:101150009C4D51F1E0E0F8E080910501909106018D
:10116000A0910701B0910801803B9440A105B10511
:10117000F1F480910C0180FD1AC0EE3F8AE0F8077F
:1011800089F587E797E7918380838091600080935A
:10119000550188E19BE00FB6F894A8958093600014
:1011A0000FBE9093600067CEEEEFFAE0D5CF80815E
:1011B00091818737974709F05ECEA89580916000AE
:1011C0008861809360008091550180936000EE3FBC
:1011D0002AE0F20789F08091FE0A9091FF0A91833C
:1011E000808349CE808191818737980751F290930F
:1011F000FF0A8093FE0AC5CF1092FF0A1092FE0AE2
:101200003ACE0E940D04DC0112960D911C9101153D
:10121000110509F4E8CED801ED91FC910190F0811F
:10122000E02DBE016B5E7F4FC8010995811123CE71
:10123000F80100851185EBCF181619060CF41BCEAA
:10124000D2CEF1E0FF12BECE6FEA76E004CF0F926D
:101250000FB68F939F93EF93FF9380913F018D5F24
:101260008D3708F08D5780933F01E4E4F1E08081F1
:101270008E4F808391819F4F918382818F4F828394
:1012800083818F4F8383E0E4F1E080818F5F8083EF
:1012900081818F4F818382818F4F828383818F4FA2
:1012A00083838FB18F6066991C9B88278F3681F46A
:1012B00080913E01981B963068F0E0E0F8E087E707
:1012C0008083818388E180936000F0936000FFCF8A
:1012D00090933E01FF91EF919F918F910FBE0F90E0
:1012E0001895EF92FF920F931F93CF93DF93F82EF1
:1012F000192FE62E042F81E0860F880F0E94230508
:1013000083E00E942305CF2DD12FEC0EFD2EF11C82
:10131000CE15DF05B9F007FF13C0FE0184910E94CE
:101320002305182F80E00E94230581232196811137
:10133000EFCFDF91CF911F910F91FF90EF90089524
:101340008881EDCF81E0F5CFE7E6F5E013821282E8
:1013500088EE93E0A0E0B0E084839583A683B78312
:1013600088E191E0918380838FEF9FEF9587848759
:10137000E7EBF5E0138212828AE291E091838083A9
:101380000895789483E084BD83E085BD81E08093F7
:101390006E00E1E8F0E083E08083E0E881E08083B4
:1013A000E1E983E08083E0E981E08083E1EC87E0AC
:1013B0008083E3EC81E08083E0EC82E08083E2ECF8
:1013C00081E08083EAE787E08083806880831092F1
:1013D000660110925601109258018091D7008160E9
:1013E0008093D70080EA8093D80089B5806189BD59
:1013F00089B5826089BD09B400FEFDCF0E94A503B6
:101400008091D8008F7C80618093D8008091E0002B
:10141000807F8093E0008091E1008E7E8093E100E8
:101420008DE08093E200559A209A81EC80937C00B5
:1014300085B1806F85B984B1877E84B984B1876EA8
:1014400084B95E9A5F988AB1806D8AB9769A6E98EF
:1014500081B3806F81BB899880B38D7080BB80E53C
:101460008CBD81E08DBD85E090E00E94E4055F9A2F
:1014700085E090E00E94E4055E985C98ECE5F6E07B
:1014800089E696E024912EBD00000DB407FEFDCF45
:1014900031968E179F07B1F75C9A81E880936400BC
:1014A000809165008160809365000E947D060E94A6
:1014B000FF0587FF10C05C9885EA8EBD00000DB463
:1014C00007FEFDCF5C9A2E982F982D9881E083BF60
:1014D000889513BEFCCF0E94FF0582FF48C02D985F
:1014E0000E94FF0584788438E1F40E94E20588ECCC
:1014F00090E00E94E4052F9882E090E00E940E0C9C
:101500008F3F29F06FEF82E090E00E94160C84EF8D
:1015100091E00E94E4052F9A0E94FF0584788438A8
:10152000D9F30E94FF0584718431E1F40E94E20541
:1015300088EC90E00E94E4052E9882E090E00E9402
:101540000E0C882329F060E082E090E00E94160CE7
:1015500084EF91E00E94E4052E9A0E94FF058471B9
:101560008431D9F388EC90E00E94E405B4CF0E9466
:10157000E20582E090E00E948406882309F44BC0D3
:101580003E9A3F9A81E090E00E948406482F447082
:10159000942E81FF10C041112E98C1EFDFEF08E0BB
:1015A00010E078E5872E0E94FF0586FF37C02E9A4F
:1015B0002F9A0E94E20582E390E00E94E4050E94D7
:1015C000FF058111F8CF80E180930001D1E087E62B
:1015D000C82E81E0D82E90E0E92E90E0F92EBB24B1
:1015E000B39400E110E08FB7F8944091440150911A
:1015F000450160914601709147018FBFC0914A013A
:10160000CC2309F4CCC010924A01E114F10459F33F
:101610000E940000E8CF3E983F98B4CF992029F06F
:10162000C430D10511F42E9A2F9881E00E949603C0
:101630009E01D7FF04C0222733272C1B3D0B2770A8
:101640003327CE01D7FD079663E0959587956A9578
:10165000E1F7D7FF05C00197F801E21BF30B9F01EB
:10166000BC017695762F66277795679569597E4FE9
:10167000F12CE12C3801621A730A8E3FFFEF9F07AD
:1016800009F43DC08E9CD0018F9CB00D112450E018
:1016900040E0A455BA4F5B01E0E8AE0EB11C8F3FAD
:1016A000980791F0FD01E40FF51FE4916B01C40E62
:1016B000D51EF0E02F01022E01C0440C0A94EAF777
:1016C000F60154884528448A2115310599F0FD0119
:1016D000E40FF51FE4916501C40ED51EF0E02F0163
:1016E000062C02C0559447940A94E2F7F6015488F8
:1016F0004528448A4F5F5F4F4835510581F6019672
:1017000060587F4FEA94EF2809F045C00E947D069B
:101710008FE090E00E94E4052196C931D10509F0DF
:1017200042CF992011F02F9A2D9880E991E00E94E4
:10173000E4050E94E20581E090E00E94840680FFBB
:101740003ACF8AE090E00E9484069FEF980F9E3F78
:1017500008F031CF22E330E030934D0120934C016B
:1017600028E330E030934F0120934E01CBE0D0E0EE
:10177000682F87EB95E00E940706CE010E94840641
:101780002196C131D105A1F70E947D0688EE93E034
:101790000E94E40510CFEE24E394F12C6ECF8091EB
:1017A0004B01942F981B892F90910001891740F4C9
:1017B0008F5F891708F029CFD3BF889513BE25CF37
:1017C000B0924A0140934B018091480190914901A8
:1017D000019690934901809348010E94FF058093F0
:1017E0005001F601C111CFEF0024C193C193C19301
:1017F000C1930394D1F710934D0100934C011093C2
:101800004F0100934E0144E050E062E371E087EB4A
:1018100095E00E94B5050E947D06F7CEF999FECFAE
:1018200092BD81BDF89A992780B50895262FF99920
:10183000FECF1FBA92BD81BD20BD0FB6F894FA9AB3
:10184000F99A0FBE01960895EE0FFF1F0590F491CF
:10185000E02D0994F894FFCF10FFFFFFFF00E10097
:10186000000000000000C1808100000000000000B6
:10187000A2042104C304B8040905C704E504000058
:1018800000000706B505810680066D656E750000CF
:1074000080E189BD82E189BD09B400FEFDCF089508
:10741000CAD569F08091E9008F931092E9009FD45A
:1074200083FF01C01ED58F9187708093E900089576
:107430008EEF0090E10008220092E1000895F20131
:10744000F999FECFF2BDE1BD0895F9DFF89A80B554
:1074500008C0F5DF1FBA80BD0FB6F894FA9AF99A02
:107460000FBE31962F010895E0E0F0E085919491F0
:107470000196089580EE8BB98BEA34D01092890082
:107480008AEF8093880082E080936F0083E080938E
:107490008100E7E5F7E785913AD0E336E1F781E04F
:1074A0008093D7008AE482BF1092D8001092E20045
:1074B0001092DA001092E10080E808D019BC1EBAE0
:1074C0001092E00062D489E053D481E98093D8001F
:1074D0000895A3E6B1E090E81AD08D939A95E1F76C
:1074E000089586E008D010C083E005D08F2F0FD01C
:1074F0008E2F0DD080E05E9A599809C005D085E0A6
:10750000FADF05D080FDFDCF599A5E9808958EBDB3
:107510008DB587FFFDCF8EB508958FE08221E9F705
:10752000F3DFE3E6F6E090EB5C98892FF0DF80E193
:10753000EEDF5C9A8191EBDF83E68E278F77D1F7C0
:107540009395983B89F70895E3E6F1E097FC36C000
:1075500094FC4DC092FE089596849920D1F3F8943E
:10756000C089D78520E030E080E090E4AFEFBFEF46
:10757000119689199040E0F72D01BD4F8D0127FD2F
:1075800013C0E0E0F8E011928EE7819392E4E117F6
:1075900091939AE508F092E4E334C9F7819310825D
:1075A000BFDFFE012196A0DF94DFF901FFD4205850
:1075B0003F4F040D151D9A9411F712C28301282D17
:1075C00060906C0170906B0143D019F48823C1F76F
:1075D0000895380188243CD0C9F580916A0182174A
:1075E00009F4830160906E0170906D01F4CF80E129
:1075F000982E60906E0170906D012AD059F4882306
:10760000B1F708959FEF95FC03C096FE089591E0B1
:1076100097FB890E662477248301222719D0B1F4C1
:107620008823A1F380916A0136F0881650F48217FE
:1076300030F0213003C0881520F4281710F483019E
:10764000282F60906E0170906D01E8CF3801822E76
:10765000F3014ADF3EDFC3E6D1E0E0E5F7E709905A
:107660008591081621F4E735D1F7088080104CCFBA
:10767000C9E031DFCA95E9F7D0E197FC55C094FC29
:1076800037C096FE1AC0C3E6D2E0E3E6F6E098E023
:1076900088E78E0F00840192E817E1F7884F099080
:1076A0000192E817E1F7C858DF4F9A9589F735DF5F
:1076B000C85FD340C33E49F749C0C3E6D6E0EBE517
:1076C000FAE098E08E2F885702900086E817E1F7DD
:1076D00038960A900292E817E1F73897C857D040D9
:1076E0009A9581F71ADFC850DC4FC33E41F72EC090
:1076F000A3EEB6E0E3E6F6E09AE0C6E00D90808106
:107700008025807F802582958193A336B90709F46F
:10771000B2E0E336F90709F4F2E0E336FC0771F76B
:10772000FCDEDA9529F712C0A3EEB9E0E3E6FAE051
:1077300092E00E90829180258F70802582958083C3
:10774000E336F907B1F7E9DEDA9571F7882708958E
:1077500041524455424F59D5F08D14A1C881CFD91B
:10776000F1AF000000FFFFCFCFFFFFFFFFCFCFFF44
:10777000FF0000FE067E7E06FE46565616FE0656A4
:10778000461EFE3F61E9E3FFE3EBE3FFE3EBE3FFCC
:10779000E16B3F0012011001020000084123360096
:1077A00001000000000109023E00020100803209D0
:1077B000040000010202010005240010010424025B
:1077C000040524060001070582030800FF090401DF
:1077D00000020A00000007050402100001070583EB
:0477E0000210000192
:1078000011241FBE04B714BE88E18093600010925B
:1078100060008EEF9AE09EBF8DBF222433242101A9
:107820003101410180E88AC00F928F939F931F928C
:107830000FB60F9211244F936F938091DA0080FF5F
:1078400037C023C00F920FB68F939F93EF93FF9390
:1078500088278093850080938400E0E5F1E09281A1
:10786000907261F490818917980B908309F45D9A66
:1078700091818917980B918309F4289A239411F424
:107880008315381EFF91EF9154C08091D80080FF7E
:107890000FC08091DA008E7F8093DA008091D9004A
:1078A00080FF04C0ADDD81E08EBB02C019BC1EBAF2
:1078B0008091E10080FF0BC055D280FF08C055D2F7
:1078C0008091D800806202DE19BC85E08EBB809179
:1078D000E10084FF1AC046D284FF17C091DD809179
:1078E000D8008F7DF3DD8FEEA4DD3CD28F7E8160EA
:1078F0003FD280915301882331F48091E30087FDCA
:1079000002C081E001C084E08EBB8091E10083FF72
:107910000CC028D283FF09C087EF8BDD82E08EBBCD
:107920001092530185DD21D230D26F914F910F908B
:107930001F909F918F910FBE0F90189580936100BB
:1079400010926100B1E0B5BF82E085BF81EF85B9DB
:1079500087EE84B91DB8769A10BA83EF81BB82E6B0
:107960008BB982EF8AB980E58CBDBDBDA0E0E4E9AA
:10797000F7E705900D92A035E1F71D92BB30E9F7CE
:1079800001FD06C0000004C07C9B02C06DDD41F516
:1079900071DD78945DDE71F0ABE9B7E0E3E6F7E71F
:1079A00090E105900D929A95E1F7A059BF4FE33908
:1079B000B9F7B7DD52D02CDD80915201807861F4A7
:1079C0008FB18095807F66991C9B8460982E1ADE0B
:1079D0008110BADD92FC02C0332062F745DD51F31D
:1079E000F89489EB7FDD81E08093E00010926F00D6
:1079F00010928100109285001092840081E085BF72
:107A000015BE2E9A2F9A2D9A5D9A289A0C940000F2
:107A1000A4D107C057D102C0C6D239F0A0D182FF8D
:107A2000FBCF85FFF7CF8091F1000895082E83E00A
:107A300095D185FD07C08AD102C0B5D269F08FD13A
:107A400080FFFBCF0092F10080915201807221F4FF
:107A50005D9884E68093500108957FD182FF34C100
:107A600080915201807221F4289884E6809351011C
:107A7000CFDF182F853431F422248EE7382EDFDC57
:107A80008DE00BC1843511F4C3DFFACF8C34C1F320
:107A90008035B1F3843721F484E4C8DF80E0FDC091
:107AA000813611F489E5F9C0813429F4B1DF582E0B
:107AB000AFDF482EE5CF803711F483E5EEC0833584
:107AC00039F4E0E5F7E78591B1DFE735E1F7E6C0A6
:107AD000863521F481E3AADF89E3DFC0863761F4CC
:107AE00081E3669B8E5F1C9B8F5FA0DF8FB18095CB
:107AF00082958F708F5BD1C08837A9F489DF80931E
:107B00005201289A84FD28985D9A83FD5D982E9AEB
:107B100081FD2E982F9A82FD2F982D9A80FD2D9809
:107B200087FD8824ADCF8A3649F48FE9E4DCC3E0D1
:107B3000EEDC7CDFCA95E1F7E7DCB0C0833731F4D7
:107B400087E874DF85E972DF8EE1A7C0853639F4F6
:107B5000E0E8F3E73ED2E058F040E0F791CF82361C
:107B600031F489E563DF80E061DF80E896C082342C
:107B700019F0873609F07DC033244ADFD82F48DF5B
:107B8000C82F46DF082F8354843008F085C00634A0
:107B900011F4440C551CF20110926F001736B9F421
:107BA000033489F483E0A1DCB2DC8EB51EBC3EDF79
:107BB0000DB42197D1F7A8DC08C0063411F48591E3
:107BC00001C043DC33DF2197C2F72F014AC00334E1
:107BD000A9F4E11104C085DC88ED87DC8FDC81DC51
:107BE00082E083DC15DF0DB48EBDCA95D9F73196DE
:107BF0008FDC84DCDA9569F72F0131C00634F1F4AB
:107C00009F01F437D8F4E5D119C002DF063461F4DE
:107C1000C0FB46F0F43728F4182E81E087BFE895C2
:107C200011243296082E0AC0043439F4DF01B370EF
:107C3000AD59B94F8D93319601C00BDC21972AF7CE
:107C4000043431F42F01F370FE2B49F46ADC07C0D1
:107C5000063429F42F01F901F43708F4B8D18DE086
:107C6000E5DE063411F45694479482E080936F0069
:107C700015C08237E1E049F08634E0E031F08E341F
:107C8000E3E019F0813531F4E2E0F0E089E087BF0C
:107C9000849103C08B3111F08FE3C8DE83E0C5DB34
:107CA00055D095FF03C009C07ED171F058D080FF38
:107CB000FBCF4CD002C077D139F051D080FFFBCF41
:107CC00084E0B3DB8BE743C00895E4E5F1E067E0CF
:107CD00090915B0180915C01913231F0913AE1F534
:107CE0008132D1F55ED181C0823271F48191805BA5
:107CF0008191844089F580915D0180FD2DC0F894CB
:107D000081E08093E0007CCD803231F54AD14BD1C7
:107D1000E9F08530D9F023D083FD18C082FFF7CF7A
:107D200004C081DE8193615031F09091F300809125
:107D3000F200892BB1F7C6DF611549F704C033D1D2
:107D400029F0853019F00BD080FFF9CF8EE79091A4
:107D5000E80089238093E800089584E066DB809141
:107D6000E80008958091E2000895FCDF8E7F806135
:107D70008093E200089582E061EC09D083E061E83D
:107D800002D084E060E842E103C080E060E042E0CD
:107D90004CDB81E007D01092ED006093EC00409343
:107DA000ED0008959091EB00892B8093EB000895EE
:107DB00060E0923029F0913029F4E0E062E102C005
:107DC000E2E16EE3F1E0089580915B0188234CF4D9
:107DD00002C0E9D0C1F3C3DF82FFFBCF73CFE3D092
:107DE00091F3BDDF80FFFBCFB1CF40916101509196
:107DF00062014617510520F0462F611509F4A6DFF0
:107E000050E022C0D0D061F1853051F1A8DF83FD70
:107E100059CFA5DF82FD21C080FF16C03091F3004D
:107E20002091F20006C081918093F10041502F5FB4
:107E30003F4F411519F028303105A8F350E02830A4
:107E4000310509F451E082DF4115E1F65523D1F601
:107E500004C0A9D029F0853019F081DF82FFF9CF65
:107E600031CFEBE5F1E0DFDD8193E336E1F72DDFA4
:107E700076DF83FF91C080915B0190915C0191302E
:107E800009F170F09330F1F0953009F444C0963068
:107E900009F456C0983009F460C0993059F767C0AA
:107EA000823841F780915F01BFDA2091EB00109298
:107EB000E90077D02295269521702093F100109249
:107EC000F10052C0882311F08230A1F68F71823008
:107ED00089F680915D018823D1F420915F0127709C
:107EE00049F22093E9008091EB0080FF10C09330AD
:107EF00011F480E20BC080E155DF81E0880F2A9504
:107F0000E9F78093EA001092EA0088E04BDF1092D4
:107F1000E90047D02AC0882391F410915D011068D0
:107F20000FB7F8943ED050DF1ADF80FFFDCF1093DB
:107F3000E300103883E009F482E08EBB0FBF2CC051
:107F40008058823048F580915D0190915E0130DF6C
:107F5000603011F126D049DF1FC08038E9F421D00C
:107F6000809153018093F100F1DE2EDF15C088234C
:107F700099F490915D01923078F49093530111D06F
:107F800023DF80915301882321F48091E30091E065
:107F900087FD94E09EBBEFDEE2DE83FF089580E282
:107FA00001DF87EFD4CE8EB388230895A3E6B1E036
:107FB000F437B8F40ED090E40D901D9081E087BFA7
:107FC000E89532969A95C1F71124E058F04085E083
:107FD00001C083E001D081E187BFE89507B600FCCE
:047FE000FDCF089534
:067FFA003139D9CFFBDC98
:00000001FF
